{
  "contractName": "DecentralBank",
  "abi": [
    {
      "inputs": [
        {
          "internalType": "contract Reward",
          "name": "reward",
          "type": "address"
        },
        {
          "internalType": "contract Tether",
          "name": "tether",
          "type": "address"
        }
      ],
      "payable": false,
      "stateMutability": "nonpayable",
      "type": "constructor"
    },
    {
      "constant": true,
      "inputs": [
        {
          "internalType": "address",
          "name": "",
          "type": "address"
        }
      ],
      "name": "hasStaked",
      "outputs": [
        {
          "internalType": "bool",
          "name": "",
          "type": "bool"
        }
      ],
      "payable": false,
      "stateMutability": "view",
      "type": "function"
    },
    {
      "constant": true,
      "inputs": [
        {
          "internalType": "address",
          "name": "",
          "type": "address"
        }
      ],
      "name": "isStaking",
      "outputs": [
        {
          "internalType": "bool",
          "name": "",
          "type": "bool"
        }
      ],
      "payable": false,
      "stateMutability": "view",
      "type": "function"
    },
    {
      "constant": true,
      "inputs": [],
      "name": "name",
      "outputs": [
        {
          "internalType": "string",
          "name": "",
          "type": "string"
        }
      ],
      "payable": false,
      "stateMutability": "view",
      "type": "function"
    },
    {
      "constant": true,
      "inputs": [],
      "name": "owner",
      "outputs": [
        {
          "internalType": "address",
          "name": "",
          "type": "address"
        }
      ],
      "payable": false,
      "stateMutability": "view",
      "type": "function"
    },
    {
      "constant": true,
      "inputs": [],
      "name": "reward",
      "outputs": [
        {
          "internalType": "contract Reward",
          "name": "",
          "type": "address"
        }
      ],
      "payable": false,
      "stateMutability": "view",
      "type": "function"
    },
    {
      "constant": true,
      "inputs": [
        {
          "internalType": "uint256",
          "name": "",
          "type": "uint256"
        }
      ],
      "name": "stakers",
      "outputs": [
        {
          "internalType": "address",
          "name": "",
          "type": "address"
        }
      ],
      "payable": false,
      "stateMutability": "view",
      "type": "function"
    },
    {
      "constant": true,
      "inputs": [
        {
          "internalType": "address",
          "name": "",
          "type": "address"
        }
      ],
      "name": "stakingBalance",
      "outputs": [
        {
          "internalType": "uint256",
          "name": "",
          "type": "uint256"
        }
      ],
      "payable": false,
      "stateMutability": "view",
      "type": "function"
    },
    {
      "constant": true,
      "inputs": [],
      "name": "tether",
      "outputs": [
        {
          "internalType": "contract Tether",
          "name": "",
          "type": "address"
        }
      ],
      "payable": false,
      "stateMutability": "view",
      "type": "function"
    },
    {
      "constant": false,
      "inputs": [
        {
          "internalType": "uint256",
          "name": "amount",
          "type": "uint256"
        }
      ],
      "name": "depositTokens",
      "outputs": [],
      "payable": false,
      "stateMutability": "nonpayable",
      "type": "function"
    },
    {
      "constant": false,
      "inputs": [],
      "name": "unstakeTokens",
      "outputs": [],
      "payable": false,
      "stateMutability": "nonpayable",
      "type": "function"
    },
    {
      "constant": false,
      "inputs": [],
      "name": "issueTokens",
      "outputs": [],
      "payable": false,
      "stateMutability": "nonpayable",
      "type": "function"
    }
  ],
  "bytecode": "0x60806040526040518060400160405280600e81526020017f446563656e7472616c2042616e6b0000000000000000000000000000000000008152506001908051906020019061004f9291906100a7565b5034801561005c57600080fd5b50604051610f20380380610f208339818101604052604081101561007f57600080fd5b810190808051906020019092919080519060200190929190505050819150809050505061014c565b828054600181600116156101000203166002900490600052602060002090601f016020900481019282601f106100e857805160ff1916838001178555610116565b82800160010185558215610116579182015b828111156101155782518255916020019190600101906100fa565b5b5090506101239190610127565b5090565b61014991905b8082111561014557600081600090555060010161012d565b5090565b90565b610dc58061015b6000396000f3fe608060405234801561001057600080fd5b50600436106100a95760003560e01c80636f49712b116100715780636f49712b146102275780638da5cb5b14610283578063a5ce413b146102cd578063c93c8f34146102d7578063dd49756e14610333578063fd5e6dd114610361576100a9565b806306fdde03146100ae578063228cb7331461013157806345bc78ab1461017b5780635efc071a146101d357806360ab58521461021d575b600080fd5b6100b66103cf565b6040518080602001828103825283818151815260200191508051906020019080838360005b838110156100f65780820151818401526020810190506100db565b50505050905090810190601f1680156101235780820380516001836020036101000a031916815260200191505b509250505060405180910390f35b61013961046d565b604051808273ffffffffffffffffffffffffffffffffffffffff1673ffffffffffffffffffffffffffffffffffffffff16815260200191505060405180910390f35b6101bd6004803603602081101561019157600080fd5b81019080803573ffffffffffffffffffffffffffffffffffffffff169060200190929190505050610493565b6040518082815260200191505060405180910390f35b6101db6104ab565b604051808273ffffffffffffffffffffffffffffffffffffffff1673ffffffffffffffffffffffffffffffffffffffff16815260200191505060405180910390f35b6102256104d1565b005b6102696004803603602081101561023d57600080fd5b81019080803573ffffffffffffffffffffffffffffffffffffffff169060200190929190505050610731565b604051808215151515815260200191505060405180910390f35b61028b610751565b604051808273ffffffffffffffffffffffffffffffffffffffff1673ffffffffffffffffffffffffffffffffffffffff16815260200191505060405180910390f35b6102d5610776565b005b610319600480360360208110156102ed57600080fd5b81019080803573ffffffffffffffffffffffffffffffffffffffff1690602001909291905050506109b5565b604051808215151515815260200191505060405180910390f35b61035f6004803603602081101561034957600080fd5b81019080803590602001909291905050506109d5565b005b61038d6004803603602081101561037757600080fd5b8101908080359060200190929190505050610d54565b604051808273ffffffffffffffffffffffffffffffffffffffff1673ffffffffffffffffffffffffffffffffffffffff16815260200191505060405180910390f35b60018054600181600116156101000203166002900480601f0160208091040260200160405190810160405280929190818152602001828054600181600116156101000203166002900480156104655780601f1061043a57610100808354040283529160200191610465565b820191906000526020600020905b81548152906001019060200180831161044857829003601f168201915b505050505081565b600360009054906101000a900473ffffffffffffffffffffffffffffffffffffffff1681565b60056020528060005260406000206000915090505481565b600260009054906101000a900473ffffffffffffffffffffffffffffffffffffffff1681565b6000809054906101000a900473ffffffffffffffffffffffffffffffffffffffff1673ffffffffffffffffffffffffffffffffffffffff163373ffffffffffffffffffffffffffffffffffffffff1614610593576040517f08c379a000000000000000000000000000000000000000000000000000000000815260040180806020018281038252601f8152602001807f4f6e6c7920746865206f776e65722063616e20697373756520746f6b656e730081525060200191505060405180910390fd5b60008090505b60048054905081101561072e576000600482815481106105b557fe5b9060005260206000200160009054906101000a900473ffffffffffffffffffffffffffffffffffffffff16905060006009600560008473ffffffffffffffffffffffffffffffffffffffff1673ffffffffffffffffffffffffffffffffffffffff168152602001908152602001600020548161062d57fe5b049050600081111561071f57600360009054906101000a900473ffffffffffffffffffffffffffffffffffffffff1673ffffffffffffffffffffffffffffffffffffffff1663a9059cbb83836040518363ffffffff1660e01b8152600401808373ffffffffffffffffffffffffffffffffffffffff1673ffffffffffffffffffffffffffffffffffffffff16815260200182815260200192505050602060405180830381600087803b1580156106e257600080fd5b505af11580156106f6573d6000803e3d6000fd5b505050506040513d602081101561070c57600080fd5b8101908080519060200190929190505050505b50508080600101915050610599565b50565b60076020528060005260406000206000915054906101000a900460ff1681565b6000809054906101000a900473ffffffffffffffffffffffffffffffffffffffff1681565b6000600560003373ffffffffffffffffffffffffffffffffffffffff1673ffffffffffffffffffffffffffffffffffffffff16815260200190815260200160002054905060008111610830576040517f08c379a00000000000000000000000000000000000000000000000000000000081526004018080602001828103825260138152602001807f42616c616e63652063616e6e6f7420626520300000000000000000000000000081525060200191505060405180910390fd5b600260009054906101000a900473ffffffffffffffffffffffffffffffffffffffff1673ffffffffffffffffffffffffffffffffffffffff1663a9059cbb33836040518363ffffffff1660e01b8152600401808373ffffffffffffffffffffffffffffffffffffffff1673ffffffffffffffffffffffffffffffffffffffff16815260200182815260200192505050602060405180830381600087803b1580156108d957600080fd5b505af11580156108ed573d6000803e3d6000fd5b505050506040513d602081101561090357600080fd5b8101908080519060200190929190505050506000600560003373ffffffffffffffffffffffffffffffffffffffff1673ffffffffffffffffffffffffffffffffffffffff168152602001908152602001600020819055506000600760003373ffffffffffffffffffffffffffffffffffffffff1673ffffffffffffffffffffffffffffffffffffffff16815260200190815260200160002060006101000a81548160ff02191690831515021790555050565b60066020528060005260406000206000915054906101000a900460ff1681565b60008111610a4b576040517f08c379a00000000000000000000000000000000000000000000000000000000081526004018080602001828103825260128152602001807f416d6f756e742063616e6e6f742062652030000000000000000000000000000081525060200191505060405180910390fd5b600260009054906101000a900473ffffffffffffffffffffffffffffffffffffffff1673ffffffffffffffffffffffffffffffffffffffff166323b872dd3330846040518463ffffffff1660e01b8152600401808473ffffffffffffffffffffffffffffffffffffffff1673ffffffffffffffffffffffffffffffffffffffff1681526020018373ffffffffffffffffffffffffffffffffffffffff1673ffffffffffffffffffffffffffffffffffffffff1681526020018281526020019350505050602060405180830381600087803b158015610b2857600080fd5b505af1158015610b3c573d6000803e3d6000fd5b505050506040513d6020811015610b5257600080fd5b81019080805190602001909291905050505080600560003373ffffffffffffffffffffffffffffffffffffffff1673ffffffffffffffffffffffffffffffffffffffff1681526020019081526020016000205401600560003373ffffffffffffffffffffffffffffffffffffffff1673ffffffffffffffffffffffffffffffffffffffff16815260200190815260200160002081905550600660003373ffffffffffffffffffffffffffffffffffffffff1673ffffffffffffffffffffffffffffffffffffffff16815260200190815260200160002060009054906101000a900460ff16610ca15760043390806001815401808255809150509060018203906000526020600020016000909192909190916101000a81548173ffffffffffffffffffffffffffffffffffffffff021916908373ffffffffffffffffffffffffffffffffffffffff160217905550505b6001600760003373ffffffffffffffffffffffffffffffffffffffff1673ffffffffffffffffffffffffffffffffffffffff16815260200190815260200160002060006101000a81548160ff0219169083151502179055506001600660003373ffffffffffffffffffffffffffffffffffffffff1673ffffffffffffffffffffffffffffffffffffffff16815260200190815260200160002060006101000a81548160ff02191690831515021790555050565b60048181548110610d6157fe5b906000526020600020016000915054906101000a900473ffffffffffffffffffffffffffffffffffffffff168156fea265627a7a723158201dc4647888d7caf8973834ebbd4aba17451cddf62148f96de8abdb2b640672f464736f6c63430005100032",
  "source": "pragma solidity ^0.5.0;\nimport \"./Reward.sol\";\nimport \"./Tether.sol\";\n\ncontract DecentralBank {\n    address public owner;\n    string public name = \"Decentral Bank\";\n    Tether public tether;\n    Reward public reward;\n\n    // Key store\n    address[] public stakers;\n\n    mapping(address => uint256) public stakingBalance;\n    mapping(address => bool) public hasStaked;\n    mapping(address => bool) public isStaking;\n\n    constructor(Reward reward, Tether tether) public {\n        reward = reward;\n        tether = tether;\n    }\n\n    // Staking function\n    function depositTokens(uint256 amount) public {\n        // Requirements\n        require(amount > 0, \"Amount cannot be 0\");\n\n        // Transfer Tether tokens to this address for staking\n        tether.transferFrom(msg.sender, address(this), amount);\n\n        // Update staking balance\n        stakingBalance[msg.sender] = stakingBalance[msg.sender] + amount;\n\n        if (!hasStaked[msg.sender]) {\n            stakers.push(msg.sender);\n        }\n\n        // Update staking balance\n        isStaking[msg.sender] = true;\n        hasStaked[msg.sender] = true;\n    }\n\n    // Unstake tokens\n    function unstakeTokens() public {\n        uint256 balance = stakingBalance[msg.sender];\n        require(balance > 0, \"Balance cannot be 0\");\n\n        // Transfer Tether tokens back to the specified contract address from our bank\n        tether.transfer(msg.sender, balance);\n\n        // Reset staking balance\n        stakingBalance[msg.sender] = 0;\n\n        // Update staking status\n        isStaking[msg.sender] = false;\n    }\n\n    // Issue rewards\n    function issueTokens() public {\n        // Require the owner to issue tokens only\n        require(msg.sender == owner, \"Only the owner can issue tokens\");\n\n        for (uint256 i = 0; i < stakers.length; i++) {\n            address recipient = stakers[i];\n            uint256 balance = stakingBalance[recipient] / 9; // Divide by 9 to create percentage incentive for stakers\n            if (balance > 0) {\n                reward.transfer(recipient, balance);\n            }\n        }\n    }\n}\n",
  "sourcePath": "/Users/eric/gitHub/crypto/defi-staking-app/src/contracts/DecentralBank.sol",
  "compiler": {
    "name": "solc",
    "version": "0.5.16+commit.9c3226ce.Emscripten.clang"
  },
  "schemaVersion": "3.4.7",
  "updatedAt": "2022-04-29T21:10:29.919Z",
  "devdoc": {
    "methods": {}
  },
  "userdoc": {
    "methods": {}
  }
}